:020000040000FA
:100000000040002095090000D1090000D30900003C
:1000100000000000000000000000000000000000E0
:10002000000000000000000000000000D5090000F2
:100030000000000000000000D7090000D9090000FE
:10004000DB090000DB09000015090000DB090000E6
:10005000DB09000000000000DB090000DB090000F4
:10006000DB090000BD060000DB090000DB09000021
:10007000DB090000DB090000DB090000DB090000F0
:10008000DB090000DB090000DB090000DB090000E0
:10009000DB090000DB090000DB090000DB090000D0
:1000A000DB090000DB090000000000000000000088
:1000B0000000000000000000000000000000000040
:1000C00010B5064C2378002B07D1054B002B02D02E
:1000D000044800E000BF0123237010BD740000201D
:1000E00000000000CC120000044B10B5002B03D020
:1000F0000349044800E000BF10BDC04600000000F6
:1001000078000020CC120000164B002B00D1144BBD
:100110009D46402292029A1A924600218B460F4633
:100120001348144A121A00F0A3FE0F4B002B00D004
:1001300098470E4B002B00D0984700200021040068
:100140000D000D48002802D00C4800E000BF00F070
:10015000DFFC2000290000F0B5FD00F0C3FCC04624
:100160000000080000400020000000000000000027
:1001700074000020FC0000200000000000000000CF
:1001800010B5040000F054FA014B2000236010BDAC
:10019000A40E000010B5024900F039FD10BDC046A4
:1001A000C712000070B504000D00110000F02FFD13
:1001B00029000822200000F036FD2000054900F04B
:1001C00026FD29680822200000F02DFD2000FFF701
:1001D000E1FF70BD8312000070B5654C654A664949
:1001E0002000FFF7DFFF654A65492000FFF7DAFFCF
:1001F000644A65492000FFF7D5FF644A644920003E
:10020000FFF7D0FF00256349200000F000FD290022
:100210000122200000F007FD5F4B604AE9188900C9
:1002200020000135FFF7BEFF082DECD15C4A5D4987
:100230002000FFF7B7FF5C4A5C492000FFF7B2FFE0
:100240005B4A5C492000FFF7ADFF5B4A5B49200039
:10025000FFF7A8FF5A4A5B492000FFF7A3FF5A4A5D
:100260005A492000FFF79EFF594A5A492000FFF7DC
:1002700099FF594A59492000FFF794FF584A5749B6
:100280002000FFF78FFF574A57492000FFF78AFFEA
:10029000564A57492000FFF785FF564A5649200025
:1002A000FFF780FF554A54492000FFF77BFF544A6F
:1002B00054492000FFF776FF534A52492000FFF7C8
:1002C00071FF524A4F492000FFF76CFF504A4D49D9
:1002D0002000FFF767FF4F4A4F492000FFF762FFFA
:1002E0004E4A4F492000FFF75DFF4E4A4E4920001D
:1002F000FFF758FF4D4A4E492000FFF753FF4D4A84
:100300004D492000FFF74EFF4C4A4D492000FFF7B2
:1003100049FF4C4A4C492000FFF744FF4B4A4C49E7
:100320002000FFF73FFF4B4A4B492000FFF73AFF01
:100330004A4A4B492000FFF735FF4A4A4849200006
:10034000FFF730FF484A49492000FFF72BFF484A92
:1003500048492000FFF726FF474A48492000FFF799
:1003600021FF474A47492000FFF71CFF70BDC046E8
:1003700090000020C40F000000E100E0D00F00005A
:1003800080E100E0DC0F000000E200E0E80F000088
:1003900080E200E0F40F0000003900383F10000058
:1003A000FE0F000000ED00E00A10000004ED00E088
:1003B000151000000CED00E02110000010ED00E031
:1003C0002B10000014ED00E03510000020ED00E0DF
:1003D0004210000024ED00E04E1000000803004031
:1003E0006310000078100000081300408D1000001A
:1003F00008230040A210000008330040B61000009F
:10040000CA10000008430040DE100000F210000097
:10041000071100001C1100000863004032110000A9
:100420000873004045110000088300405B11000084
:10043000089300407111000008A3004087110000DC
:1004400008B300409B11000008C30040AF1100003A
:1004500008D30040C211000008E30040D51100009D
:1004600008F30040E8110000FB1100000803014000
:100470000E12000008130140221200000823014060
:100480003612000008330140E121F0B54E4C89B02E
:100490004902200000F005FC4C49200000F0B7FBA9
:1004A0004B4A4C492000FFF77DFE4B4A20004B4948
:1004B000FFF778FEA02304224948DB051100C13173
:1004C000FF3189000132C8500D2AF7D1454A46490B
:1004D00001275A5004315A5044495A50032301937A
:1004E000FB435B071B0C03937B03049309230293D9
:1004F000083B0093009B344C1E01039B3C491E4368
:10050000009B2000DD433B4B2D011D40049B1D4300
:1005100000F07DFB01223900200000F084FB364909
:10052000200000F074FB03220099200000F07BFB08
:100530002000FFF72FFEA023A122DB05D2009D5053
:100540002E4D234A5E5123492000FFF72BFE224EF9
:10055000224932002000FFF725FE00230793254B98
:10056000274A0593079B934203D8079B01330793C0
:10057000F8E7009B5B000093029B013B0293002B7A
:10058000B8D1019B7F00013B0193002BA8D1200033
:100590001C4900F03CFBFFF71FFEA023A122E02135
:1005A000DB05D20009029950059A20005A510949E9
:1005B000074AFFF7F7FD200032000849FFF7F2FD78
:1005C000019809B0F0BDC046900000204C12000018
:1005D0007A1200001405005080120000100500502F
:1005E0000D07000005050000340700003C0700006F
:1005F00086120000F01F00008D1200000C050000A4
:10060000FFFF01009512000010B5064C19221821B9
:100610002000FFF7B5FD044A0449200000F014FC57
:1006200010BDC0469000002000000020010C00001A
:100630000C4B70B50360002343608360C3600362AA
:1006400043628363962304009B01051DC363280056
:1006500000F0F4F828002200034900F081F920009E
:1006600070BDC046B40E00006B0C0000012310B535
:100670000D4C0E49A36480239B00CB670C490D4AA7
:10068000086D002804D00020086511680131116050
:1006900009490B60A923DB001068E358010C9BB2E9
:1006A0000004184310BDC0460090004004E100E083
:1006B000FC900040D000002000E100E0F8B50F4CB5
:1006C000636C002B0FD000270D4E67643378BB425C
:1006D00009D00C4B1D68FFF7C9FF2D1ABD4202DC83
:1006E000377000F07BF9236D002B05D0064A1368A4
:1006F0000133136000232365F8BDC046FC90004021
:10070000F0000020D4000020D000002070B51B4D68
:100710002878002831D10121194B1A4A59605060BC
:100720008020C005016051680029FCD000221649D4
:10073000A2205A5004240121C000D9601C5008385E
:100740001A501248C2261A50C1228020920000037B
:1007500098508020400298500D4AB60090590D4C98
:100760000440C020000220439051C0248020640037
:100770008000105110601960297070BDF1000020D8
:1007800000900040FC000040040500004C05000003
:1007900000E100E0FF00FFFF044B10B51B78002BC9
:1007A00001D1FFF7B3FFFFF761FF10BDF10000209B
:1007B000104B70B51B780400002B01D1FFF7A6FF8A
:1007C0000D4D0E4E2B78002B02D03368A34210D073
:1007D000FFF74CFF201A0A2803DCFFF747FF0A3017
:1007E000040001232B70A823054A3460DB00A4B267
:1007F000D45070BDF1000020F0000020D400002093
:1008000000900040012310B50A4ADC0014598C42C4
:1008100007DD013BDB00D3185A680168064BCA505C
:1008200010BD0133112BF0D180210268024B490524
:10083000D150F5E7BC0E000024050000F8B50F000C
:1008400016000122244BBA400360A023234CDB0591
:10085000195905000A431A518022195912060A43F0
:100860000121B1401A511A598A4396211A511A5935
:100870008901520052081A51FFF7C4FF00220420D8
:100880002B6817495A506C395850012199601960EA
:100890001900FC31CA6013495A506A6014391F327A
:1008A0005A5011495F5009185A501E517B1C03D0F1
:1008B0000321380000F0A4FA731C03D00321300098
:1008C00000F09EFA0122094B29001A6008480732FD
:1008D00000F0C5FAF8BDC046002000401405000035
:1008E0006C0500001C0500000C050000E000002065
:1008F000F4000020962310B5DB00994202DDFFF7DB
:1009000081FF10BD9E210268014BC902D150F8E75A
:1009100024050000C1230E4A9B00D15810B50906DA
:1009200003D50C49096A002908D1D3585B0704D5BF
:10093000084B0021DB68002B01D110BD0121064BC3
:1009400018680028F9D0054B1B689847F5E7C046A2
:1009500000200040FC200040DC000020D8000020E7
:10096000034B1960436803499B005A507047C046C7
:10097000D8000020DC00002003681A00FC32106A56
:100980000128FCD100201062014AC9B29950704779
:100990001C0500000848026803210A430260074959
:1009A000074A084B9B1A03DD043BC858D050FBDCB8
:1009B000054880470548004724050040D81200003C
:1009C00000000020740000201D0A00000901000042
:1009D000FEE7FEE7FEE7FEE7FEE7FEE710B50248AA
:1009E00000F0C6F910BDC046440F000001704B1C5A
:1009F0000AD001238B404360044BC360044B036166
:100A0000044B4361044B83607047C04608050050A7
:100A10000C0500501005005014050050224910B577
:100A20000B68DBB2012B0FD1204B1B681B070BD1CE
:100A30001F4BE0241A68F02310001840224228D1EE
:100A40001C4A12681A4227D00B68DBB2012B12D164
:100A5000164A126812070ED1F021154A12680A4090
:100A6000402A08D1134A12680A4204D18021C122C7
:100A7000C905D2008B508022A3230021D205DB00C0
:100A8000D1500D4B9960013191609A68002AFCD0D9
:100A900010BD3028D4D0D7E7084B094A1A6080220D
:100AA000084B12021A60CFE7E00F00F0E40F00F0ED
:100AB000E80F00F0EC0F00F0FC00004004050040DF
:100AC000DFFF07C0186C004010B504000448130095
:100AD000002804D00A000220210000E000BF10BD61
:100AE00000000000084B10B50400002B02D00021CC
:100AF00000E000BF054B1868836A002B00D09847C0
:100B0000200000F0E7F8C04600000000C00F000021
:100B100070B500260C4D0D4C641BA410A64209D1E3
:100B2000002600F0AFF90A4D0A4C641BA410A6423F
:100B300005D170BDB300EB5898470136EEE7B3001E
:100B4000EB5898470136F2E7680000206800002063
:100B5000680000207000002010B5034B01001868E9
:100B600000F004F810BDC0460400002070B5050078
:100B7000002910D00C1F2368002B00DAE41828008D
:100B800000F07EF91D4A1368002B05D163601460E4
:100B9000280000F076F970BDA34209D921686018D9
:100BA0008342F3D118685B6841182160EEE71300B7
:100BB0005A68002A01D0A242F9D919685818A042EF
:100BC0000BD120680918581819608242E0D11068CA
:100BD0005268411819605A60DAE7A04202D90C2322
:100BE0002B60D5E721686018824203D110685268F3
:100BF0004118216062605C60CAE7C046EC000020DA
:100C0000704710B5040000F026F9200010BD70B543
:100C100005000C002178002904D02800013400F0E0
:100C200048F8F7E770BDF7B50500002430263727F0
:100C3000A24201D800290ED00F200B0003409C4691
:100C400060463300092800D93B00684663442354BA
:100C500009090134ECE7013C05D36B462800E15C4F
:100C600000F027F8F7E7F7BD704718234A1C5A43EE
:100C7000594382189268431810B5DB68002A03D1E3
:100C8000002B00D0984710BD002BFCD0103141182C
:100C900018009047F7E710B5040000F0DCF82000DA
:100CA00010BD70B50D0004000430FFF723FEE563AE
:100CB00070BD10B50C000430FFF75EFE200010BDC3
:100CC0007047704710B5FFF7FCFFFFF7F9FFFFF71C
:100CD000DBFB10BD10B5002801D000F013F8FEE7D3
:100CE00070B50400FFF758FD0500FFF755FD401BE8
:100CF000A042FAD370BDFA2310B59B005843FFF70A
:100D0000EFFF10BD10B59AB0002102A800F073F8F3
:100D1000012108A800F06FF802210EA800F06BF87E
:100D2000162114A800F067F89624059B039A20006A
:100D30001A60099A0C9B1A600F9A129B1A60159AF6
:100D4000179B01921A60FFF7D6FF069B039A2000BB
:100D50001A60099A0B9B1A600F9A119B01921A60F4
:100D6000159A189B1A60FFF7C6FFDEE770477047B9
:100D7000036870B5DB680400984763685A682368A5
:100D8000002A02D19B68984770BD5B681568984738
:100D900063682D1A5A68002D07DC916859601B683A
:100DA000002BEAD050689847E7E7236810681B6972
:100DB0009847E9E770B5436804000D00002A0AD09F
:100DC000C26813602000012100F030F829002000E3
:100DD00000F026F870BD0269F3E770B50D0004005D
:100DE0001600FFF703FE6B1C04D032000021200028
:100DF000FFF7E0FF70BD10B50022FFF7EEFF10BD5A
:100E0000A0238000DB05C018E02310B50C24DB0014
:100E1000C2588900A243C250C2581143C15010BDEC
:100E200010B5007840B2FFF7EBFF10BD002902D0EB
:100E3000012900D070470023A022C356D205C13338
:100E4000FF339B009950F5E70B0010B50100180027
:100E5000FFF73AFE10BD10B5FFF77EFE10BD002370
:100E600010B59A4200D110BDCC5CC4540133F8E7F0
:100E700003001218934200D1704719700133F9E74B
:100E800070477047F8B5C046F8BC08BC9E4670472E
:100E9000F8B5C046F8BC08BC9E467047000000008C
:100EA00000000000010C0000030C00000000000026
:100EB00000000000690C0000970C0000B004000066
:100EC00000F004006009000000D00900C01200001A
:100ED00000B01300802500000050270040380000BB
:100EE00000003B00004B000000A04E00807000009E
:100EF00000F07500127A00000000800000960000EB
:100F000000509D0000E1000000F0EB00002C01000B
:100F100000903A0100C2010000E0D7010084030004
:100F200000B0AF0390D003000000000400080700E9
:100F300000705F0700100E00A4DFBE0E40420F00DD
:100F4000000000104C0F0000E40000200D0700001E
:100F5000990700006D0D00006F0D0000B107000043
:100F60000000000000000000000000000000000081
:100F70000000000000000000000000000000000071
:100F80000000000000000000000000000000000061
:100F90000000000000000000000000000000000051
:100FA0000000000000000000000000000000000041
:100FB0000000000000000000000000000000000031
:100FC000080000204E5649432D3E49534552090022
:100FD0004E5649432D3E4943455209004E5649431A
:100FE0002D3E4953505209004E5649432D3E494328
:100FF000505209004E5649432D3E49505B00534321
:10100000422D3E435055494409005343422D3E4929
:1010100043535209005343422D3E41495243520922
:10102000005343422D3E53435209005343422D3E49
:1010300043435209005343422D3E5348505B315DB8
:1010400009005343422D3E534843535209004E5228
:10105000465F504F5745522D3E494E54454E434CE6
:101060005209004E52465F434C4F434B2D3E494E72
:1010700054454E434C5209004E52465F524144493A
:101080004F2D3E494E54454E434C5209004E524658
:101090005F55415254302D3E494E54454E434C52BB
:1010A00009004E52465F535049302D3E494E54453B
:1010B0004E434C5209004E52465F545749302D3E24
:1010C000494E54454E434C5209004E52465F5350D0
:1010D00049312D3E494E54454E434C5209004E5223
:1010E000465F545749312D3E494E54454E434C526C
:1010F00009004E52465F53504953312D3E494E54DC
:10110000454E434C5209004E52465F5350494D31B3
:101110002D3E494E54454E434C5209004E52465FB7
:101120004750494F54452D3E494E54454E434C522D
:1011300009004E52465F4144432D3E494E54454EB0
:10114000434C5209004E52465F54494D4552302D92
:101150003E494E54454E434C5209004E52465F5450
:10116000494D4552312D3E494E54454E434C52094E
:10117000004E52465F54494D4552322D3E494E5421
:10118000454E434C5209004E52465F525443302D57
:101190003E494E54454E434C5209004E52465F5410
:1011A000454D502D3E494E54454E434C5209004E3C
:1011B00052465F524E472D3E494E54454E434C5287
:1011C00009004E52465F4543422D3E494E54454E1E
:1011D000434C5209004E52465F4141522D3E494E0A
:1011E00054454E434C5209004E52465F43434D2DE9
:1011F0003E494E54454E434C5209004E52465F57AD
:1012000044542D3E494E54454E434C5209004E52D3
:10121000465F525443312D3E494E54454E434C5245
:1012200009004E52465F514445432D3E494E5445B8
:101230004E434C5209004E52465F4C50434F4D5066
:101240002D3E494E54454E434C52090057656E6E33
:101250002069737420646173204E75726E737475A7
:10126000636B2067697420756E6420536C6F7465BE
:10127000726D657965723F0D0A0044697220200025
:10128000496E20202000726F77733A200020636F30
:101290006C733A20004A6121204265696865726872
:1012A000756E647420646173206F64657220646974
:1012B0006520466C697070657277616C6474206734
:1012C000657273707574210D0A0000000000000043
:1012D00038EEFF7F01000000000000000800002041
:1012E00000000000800F0000A00F0000600F000051
:1012F00000000000000000000000000000000000EE
:1013000000000000000000000000000000000000DD
:1013100000000000000000000000000000000000CD
:1013200000000000000000000000000000000000BD
:1013300000000000000000000000000000000000AD
:0C134000E900000009060000C1000000E8
:040000050000099559
:00000001FF
